:040000000BEF00F012
:100008004F82FACF26F0FBCF27F002ED04F028EF5D
:0200180005F0F1
:03080000000C00E9
:100804000600E9CF28F0EACF29F0E1CF2AF0E2CFC1
:100814002BF0D9CF2CF0DACF2DF0F3CF2EF0F4CF8C
:100824002FF0F6CF30F0F7CF31F0F8CF32F0F5CF2C
:1008340033F0F0A208D0F0924EA203D0F1984E9279
:1008440002D0F1884E829EBC9E9CF2A41ED0F294EB
:10085400020E156002D0152A11D0D59E20EE40F06C
:1008640001D80AD00500FA6EDE50FD6EDE50FE6E31
:10087400F850FF6EFA501200000E156EF00E44ECA4
:1008840006F0BD0E40EC06F0D58E9EA415D09E94C5
:100894002250020D3E0EF324D96E000EF420DA6EBF
:1008A40001D80AD00500FA6EDE50FD6EDE50FE6EF1
:1008B400F850FF6EFA50120033C0F5FF32C0F8FF53
:1008C40031C0F7FF30C0F6FF2FC0F4FF2EC0F3FF96
:1008D4002DC0DAFF2CC0D9FF2BC0E2FF2AC0E1FFF4
:1008E40029C0EAFF28C0E9FF27C0FBFF26C0FAFFA2
:1008F4004F921100000E0001B16F3DAE07D03C6C69
:100904003D1ED8B03D2A010E0001B16F3BAE07D0A9
:100914003A6C3B1ED8B03B2A010E0001B11B000EFD
:100924000001B36F000EB26F3C503D10D8B421D01B
:10093400010E0001B06F05D0D8903C363D36000161
:10094400B02B3DAEF9D70001D890B237B3373C5045
:100954003A5C3D503B58D8A006D03C503A5E3D50DE
:100964003B5A0001B281D8903D323C320001B02F95
:10097400EAD70001B1510001D8B405D00001B26D2D
:10098400B31FD8B0B32BB2C03AF0B3C03BF01200DF
:100994000001B66FB6C034F0356A010E376ED60E5C
:1009A400366E9CEC05F034C03AF035C03BF0000ED6
:1009B4003D6E640E3C6E7CEC04F03AC00BF03BC020
:1009C4000CF0030E0B14076E086A0BC0B4F00CC0D5
:1009D400B5F00001D890B533B4330001D890B533E5
:1009E400B433B4C009F0B5C00AF009C0BBFF07387E
:1009F400F00BBA10BA6E12000FC024F010C025F02C
:100A0400241E251E244A252ABE502426BF502522F2
:100A14001650020D600EF324D96E000EF420DA6E27
:100A240024C0DEFF25C0DDFFBECF0FF0BFCF10F026
:100A3400162A190E1618D8A41200CD069D94949463
:100A44008B84000E166E000E226E120000EE60F013
:100A5400500EEE6AE806FDE14E6A00EE01F0230E48
:100A6400EE6AE806FDE1D60EF66E0B0EF76E000E8A
:100A7400F86E00EE3EF010EE10F00900F5CFEEFF38
:100A8400E550E150FAE14F904F92000EF86E0001EC
:100A940089EF05F0CD8ECD8CCD86CD92CD90CD5005
:100AA400CF0B1F6E080E4C18D8A404D01F50300969
:100AB400CD6E1200040E4C18D8A404D01F50200987
:100AC400CD6E1200020E4C18D8A404D01F50100989
:100AD400CD6E12001FC0CDFF12009D84080EBD6EA6
:100AE400000ECF6E000ECE6EFE0ECE240D6EFF0EE7
:100AF400CF200E6EA00EB16EC80ECD6E94940E5023
:100B0400BF6E0DC0BEFFCD2A020E226E12006C0E07
:100B1400D36EAFEC05F0C0EC05F0D59EF00E3CECC6
:100B240006F0BD0E38EC06F0D58E2FEC06F018EC6E
:100B340006F0FFD734503602F3CF38F0F4CF39F053
:100B440034503702F350392635503602F3503926E3
:100B540038C034F039C035F012004BEC06F01EEC0E
:100B640006F011EC06F02AEC06F0F3EC05F003ECC9
:100B740006F0FBEC05F00AEC06F01200070E356EE9
:100B8400000E346E3450400DF3503524800FD56E72
:100B9400000ED76E150ED66EF29412000001B76FD8
:100BA400000ECA6E48EC06F00001B751CAEC04F01E
:100BB4009396060ECA6E1200CD06000ECF6E000E7E
:100BC400CE6ECD2ABECF0FF0BFCF10F0040E226E32
:100BD40012009A0CDE0A480CBC0BFC0923254024A5
:100BE400042B9D8C9D9A9D989D969D949D929D907D
:100BF40012009F8C9F9A9F989F969F849F929F908C
:100C04001200A09EA09CA098A094A096A09212006E
:100C1400A29EA29CA298A294A296A2921200F19ED5
:100C2400F19CF19AF188F184F1901200320ED0EC2B
:100C340005F034EC06F01200F28EF29CF28AF2987F
:100C4400F2961200040EBD6E9484030E226E1200FE
:100C5400F08EF09CF088F096120094948B844CEC07
:100C640005F012000C0EBA6ECD861200346E34C03C
:100C7400D6FF1200346E34C0D7FF1200246E24C095
:100C8400D6FF1200246E24C0D7FF12007C0ECB6E58
:080C94001200D08E12001200C4
:020000040020DA
:08000000FFFFFFFFFFFFFFFF00
:020000040030CA
:0E000000000B1B1EFF0085FF0000000000002B
:00000001FF
