:040000000BEF00F012
:100008005C82FACF4DF0FBCF4EF002ED04F0E7EF43
:0200180004F0F2
:10080000000C0C000600E9CF4FF0EACF50F0E1CF2A
:1008100051F0E2CF52F0D9CF53F0DACF54F0F3CF0A
:1008200055F0F4CF56F0F6CF57F0F7CF58F0F8CF99
:1008300059F0F5CF5AF0F0B2F0929EBA9DAA1CD0B2
:100840009E9A0A0EAE18D8B40FD0EA0EAE18D8B4DD
:100850000BD03450010D010EF324D96E000EF4209C
:10086000DA6EAECFDFFF342A240EAE18D8A404D03F
:10087000000E346E010E2B6E9EAC2AD09E9C44500E
:100880004B6E4C6A4B50C35C4C50C458D8B05BA202
:1008900001D01DD044504B6E4C6A4B50C35C4C5041
:1008A000C458D8B05BB201D012D045504B6E4C6AE0
:1008B000C3504B5CC4504C58D8B05BA201D007D099
:1008C00045504B6E4C6AC3504B5CC4504C582A2A5E
:1008D000F2A41ED0F294020E266002D0262A11D075
:1008E000D59E20EE39F001D80AD00500FA6EDE5010
:1008F000FD6EDE50FE6EF850FF6EFA501200000ED4
:10090000266EF00EE9EC05F0BD0EE5EC05F0D58E97
:100910009EA415D09E943550020D370EF324D96E47
:10092000000EF420DA6E01D80AD00500FA6EDE500F
:10093000FD6EDE50FE6EF850FF6EFA5012005AC087
:10094000F5FF59C0F8FF58C0F7FF57C0F6FF56C073
:10095000F4FF55C0F3FF54C0DAFF53C0D9FF52C0B3
:10096000E2FF51C0E1FF50C0EAFF4FC0E9FF4EC0B7
:10097000FBFF4DC0FAFF5C92110020C049F021C07E
:100980004AF0491E4A1E494A4A2ABE504926BF50CB
:100990004A222750020D600EF324D96E000EF42077
:1009A000DA6E49C0DEFF4AC0DDFFBECF20F0BFCF08
:1009B00021F0272A280E2718D8A41200CD069D94CE
:1009C00094948B84000E276E000E356E120000EE9C
:1009D00060F0500EEE6AE806FDE15B6A00EE01F0A1
:1009E000360EEE6AE806FDE12E0EF66E0B0EF76E81
:1009F000000EF86E00EE37F010EE12F00900F5CFA1
:100A0000EEFFE550E150FAE15C905C92000EF86E6A
:100A1000000148EF05F0CD8ECD8CCD86CD92CD90E6
:100A2000CD50CF0B316E080E4718D8A404D03150EA
:100A30003009CD6E1200040E4718D8A404D03150EE
:100A40002009CD6E1200020E4718D8A404D03150F0
:100A50001009CD6E120031C0CDFF12009D84080E2A
:100A6000BD6E000ECF6E000ECE6E500ECE241E6EEA
:100A7000460ECF201F6EA00EB16EC80ECD6E9494A0
:100A80001F50BF6E1EC0BEFFCD2A020E356E120073
:100A90006C0ED36E75EC05F061EC05F0D59EF00E92
:100AA000D6EC05F0BD0ED1EC05F0D58EE0EC05F0EE
:100AB000929081A402D08980FCD781B4FAD7899022
:100AC000F8D7070E0001B16F000E0001B06F0001F2
:100AD000B051400DF3500001B125800FD56E000ECE
:100AE000D76E150ED66EF2941200EDEC05F0C5EC43
:100AF00005F0BEEC05F0DBEC05F0A0EC05F0B0EC89
:100B000005F0A8EC05F0B7EC05F01200CD06000EDC
:100B1000CF6E000ECE6E000EBF6E000EBE6ECD2AE2
:100B2000BECF20F0BFCF21F0040E356E1200DE0BD9
:100B30005C0A960B0C0B7A09232540E8C824042B89
:100B40009D8C9D9A9D989D969D949D929D9012003E
:100B50009F8C9F9A9F989F969F849F929F90120030
:100B6000A09EA09CA098A094A096A0921200A29EE5
:100B7000A29CA298A294A296A2921200F19EF19C2D
:100B8000F19AF188F184F1901200F28EF29CF28ACF
:100B9000F298F2961200040EBD6E9484030E356E28
:100BA00012000001B06FB0C0D6FF12000001B06F9C
:100BB000B0C0D7FF1200F08EF09CF088F0961200C3
:100BC00094948B840BEC05F01200496E49C0D6FF5B
:100BD0001200496E49C0D7FF1200D08E12001200D9
:020000040020DA
:08000000FFFFFFFFFFFFFFFF00
:020000040030CA
:0E000000000B1B1EFF0085FF0000000000002B
:00000001FF
