:040000000BEF00F012
:100008004C82FACF15F0FBCF16F002ED04F084EF26
:0200180005F0F1
:10080000000C0C000600E9CF17F0EACF18F0E1CF9A
:1008100019F0E2CF1AF0D9CF1BF0DACF1CF0F3CFEA
:100820001DF0F4CF1EF0F6CF1FF0F7CF20F0F8CF79
:1008300021F0F5CF22F0F0A20ED0F0924BA206D01C
:1008400089906EEC07F0F1884B9205D0898022ECFC
:1008500007F0F1984B829EAC2AD09E9C4650136EB6
:10086000146A1350C35C1450C458D8B04BA201D0C2
:100870001DD04650136E146A1350C35C1450C458F4
:10088000D8B04BB201D012D04750136E146AC35087
:10089000135CC4501458D8B04BA201D007D04750B5
:1008A000136E146AC350135CC4501458372AF2A450
:1008B0001ED0F294020E336002D0332A11D0D59E9E
:1008C00020EECAF001D80AD00500FA6EDE50FD6EA7
:1008D000DE50FE6EF850FF6EFA501200000E336EBE
:1008E000F00E61EC07F0BD0E5DEC07F0D58E9EA416
:1008F00015D09E944150020DC80EF324D96E000EFF
:10090000F420DA6E01D80AD00500FA6EDE50FD6ED2
:10091000DE50FE6EF850FF6EFA50120022C0F5FF56
:1009200021C0F8FF20C0F7FF1FC0F6FF1EC0F4FF74
:100930001DC0F3FF1CC0DAFF1BC0D9FF1AC0E2FFC5
:1009400019C0E1FF18C0EAFF17C0E9FF16C0FBFF9E
:1009500015C0FAFF4C921100000E0001C16F00019A
:10096000BFAF08D00001BE6DBF1FD8B0BF2B010EB6
:100970000001C16F0001BDAF08D00001BC6DBD1FFB
:10098000D8B0BD2B010E0001C11B000E0001C36FCA
:10099000000EC26F0001BE510001BF11D8B42CD0AF
:1009A000010E0001C06F06D00001D890BE37BF37DE
:1009B0000001C02B0001BFAFF7D70001D890C237AC
:1009C000C3370001BE510001BC5D0001BF510001F1
:1009D000BD59D8A00AD00001BE510001BC5F000182
:1009E000BF510001BD5B0001C2810001D890BF333F
:1009F000BE330001C02FE1D70001C1510001D8B4BE
:100A000005D00001C26DC31FD8B0C32BC2C0BCF05B
:100A1000C3C0BDF01200000E0C6E0AAE06D0096C09
:100A20000A1ED8B00A2A010E0C6E08AE06D0076C5A
:100A3000081ED8B0082A010E0C1A000E0E6E000E09
:100A40000D6E09500A10D8B41CD0010E0B6E04D0E4
:100A5000D89009360A360B2A0AAEFAD7D8900D3646
:100A60000E360950075C0A500858D8A005D0095026
:100A7000075E0A50085A0D80D8900A3209320B2EB0
:100A8000EDD70C50D8B404D00D6C0E1ED8B00E2A81
:100A90000DC007F00EC008F012000001C66FC6C0FE
:100AA000B6F00001B76B010E0001B96FD60EB86F3A
:100AB00059EC06F0B6C0BCF0B7C0BDF0000E0001A6
:100AC000BF6F640EBE6FACEC04F0BCC029F0BDC0BB
:100AD0002AF0030E2914236E246A29C0C4F02AC008
:100AE000C5F00001D890C533C4330001D890C53398
:100AF000C433C4C027F0C5C028F027C0BBFF2338CB
:100B0000F00BBA10BA6E120000EE60F0560EEE6AEC
:100B1000E806FDE14B6A00EE23F0200EEE6AE806DF
:100B2000FDE15C0EF66E0E0EF76E000EF86E00EE36
:100B3000C8F010EE0AF00900F5CFEEFFE550E150E5
:100B4000FAE1A20EF66E0E0EF76E000EF86E00EED3
:100B500043F010EE08F00900F5CFEEFFE550E1504C
:100B6000FAE14C904C92000EF86E000113EF06F083
:100B7000116E11C001F0026A010E046ED60E036EF2
:100B8000A2EC06F001C007F002C008F0000E0A6EE9
:100B9000640E096E0BEC05F007C029F008C02AF0BE
:100BA000030E2914236E246A29C00FF02AC010F006
:100BB000D89010320F32D89010320F320FC027F079
:100BC00010C028F027C0BBFF2338F00BBA10BA6E54
:100BD00012002DC001F02EC002F0011E021E014ABB
:100BE000022ABE500126BF5002223450020D600E70
:100BF000F324D96E000EF420DA6E01C0DEFF02C0CD
:100C0000DDFFBECF2DF0BFCF2EF0342A280E3418D2
:100C1000D8A41200CD069D9494948B84000E346E5B
:100C2000000E416E12006C0ED36EB5EC06F08EEC29
:100C300006F0D59EF00E3DEC07F0BD0E38EC07F047
:100C4000D58E47EC07F0929080B04BB206D08980E9
:100C500016EC07F0F1984B82F7D780A04BA2F4D79F
:100C6000899068EC07F0F1884B92EED7CD8ECD8C51
:100C7000CD86CD92CD90CD50CF0B3E6E080E49184B
:100C8000D8A404D03E503009CD6E1200040E49188D
:100C9000D8A404D03E502009CD6E1200020E49188F
:100CA000D8A404D03E501009CD6E12003EC0CDFF36
:100CB00012000001B6510001B803F3CFBAF0F4CF2F
:100CC000BBF00001B6510001B903F3500001BB278E
:100CD0000001B7510001B803F3500001BB27BAC0AF
:100CE000B6F0BBC0B7F012009D84080EBD6E000EBA
:100CF000CF6E000ECE6E500ECE242B6E460ECF2041
:100D00002C6EA00EB16EC80ECD6E94942C50BF6E9A
:100D10002BC0BEFFCD2A020E416E1200070E00014D
:100D2000B76F000E0001B66F0001B651400DF350D1
:100D30000001B725800FD56E000ED76E150ED66E4A
:100D4000F294120001500302F3CF05F0F4CF06F045
:100D500001500402F350062602500302F350062607
:100D600005C001F006C002F0120071EC07F01CECA7
:100D700007F00FEC07F042EC07F0F1EC06F001ECA5
:100D800007F0F9EC06F008EC07F01200CD06000EB3
:100D9000CF6E000ECE6E000EBF6E000EBE6ECD2A60
:100DA000BECF2DF0BFCF2EF0040E416E1200000119
:100DB000C76F000ECA6E65EC07F00001C7514DEC1D
:100DC00005F09396060ECA6E1200126E000ECA6EE1
:100DD0006BEC07F01250B8EC05F09396060ECA6E55
:100DE00012009D8C9D9A9D989D969D949D929D909C
:100DF00012009F8C9F9A9F989F969F849F929F908E
:100E00001200A09EA09CA098A094A096A092120070
:100E1000A29EA29CA298A294A296A2921200F19ED7
:100E2000F19CF19AF188F184F1901200320ED7EC26
:100E300006F055EC07F01200F28EF29CF28AF2985E
:100E4000F2961200320EE5EC06F059EC07F01200B3
:100E5000040EBD6E9484030E416E1200E60EE80C83
:100E6000500E8C0DD20B000EBA6ECD968A961200E3
:100E70000001B66FB6C0D6FF12000001B66FB6C053
:100E8000D7FF1200F08EF09CF088F0961200949438
:100E90008B8436EC06F01200000EBA6ECD968A9660
:100EA0001200232540E8C824042B0C0EBA6ECD8610
:100EB00012000C0EBA6ECD861200016E01C0D6FF74
:100EC0001200016E01C0D7FF12007C0ECB6E120023
:100ED00033EC07F012007C0ECB6E12004CEC07F0E6
:080EE0001200D08E1200120076
:020000040020DA
:08000000FFFFFFFFFFFFFFFF00
:020000040030CA
:0E000000000B1B1EFF0085FF0000000000002B
:00000001FF
