:040000000BEF00F012
:100008004582FACF15F0FBCF16F022ED05F02CEF64
:0200180007F0EF
:10080000001919003250D8B41200000E326EBE0E1C
:100810000001DF6F000E0001E06FDFC0D9FFE0C014
:10082000DAFF0001F151DE18D8A417D00001DF4B28
:10083000E02BDFC0D9FFE0C0DAFF4350DE18D8B4A8
:1008400091EC08F0DFC0D9FFE0C0DAFF4250DE18BB
:10085000D8B489861E0E2C6EE3D0DFC0D9FFE0C06D
:10086000DAFF0001F251DE18D8A41FD00001DF4BDF
:10087000E02BDFC0D9FFE0C0DAFF480EDE18D8A4B5
:1008800008D00FD0DFC0D9FFE0C0DAFFDF50356EEF
:10089000C7D0DFC0D9FFE0C0DAFF540EDE18D8A4FD
:1008A000BFD00001DF4BE02BEDD7DFC0D9FFE0C0A8
:1008B000DAFF0001F351DE18D8A47ED00001DF4B2F
:1008C000E02BDFC0D9FFE0C0DAFFDF500001E16FAD
:1008D000D00E0001E1250001CD6F0001CE6BFF0EAF
:1008E000CE23030E0001D06FE80ECF6FFFEC07F0B0
:1008F000CDC03CF0CEC03DF00001DF4BE02BDFC0AF
:10090000D9FFE0C0DAFFDF500001E16FD00E000137
:10091000E1250001CD6F0001CE6BFF0ECE23000E4E
:100920000001D06F640ECF6FFFEC07F00001CD51D6
:100930003C260001CE513D220001DF4BE02BDFC001
:10094000D9FFE0C0DAFFDF500001E16FD00E0001F7
:10095000E1250001CD6F0001CE6BFF0ECE23000E0E
:100960000001D06F0A0ECF6FFFEC07F00001CD51F0
:100970003C260001CE513D220001DF4BE02BD00E82
:100980000001E16FFF0E0001E26FDFC0D9FFE0C0A0
:10099000DAFFDF500001E36FE46B0001E151000179
:1009A000E3270001E2510001E4230001E3513C266A
:1009B0000001E4513D2234D0DFC0D9FFE0C0DAFFAE
:1009C0000001F451DE18D8A417D00001DF4BE02B52
:1009D000DFC0D9FFE0C0DAFF480EDE18D8B42DC062
:1009E000ADFFDFC0D9FFE0C0DAFF540EDE18D8A497
:1009F00017D02EC0ADFF14D0DFC0D9FFE0C0DAFFA2
:100A00000001F551DE18D8A40BD00001DF4BE02B1C
:100A1000DFC0D9FFE0C0DAFF460EDE18D8B48996F1
:100A2000000E316E0E0E316401D012003150010DF6
:100A3000BE0EF324D96E000EF420DA6E000EDF6EC7
:100A4000312AF0D70600E9CF17F0EACF18F0E1CF4E
:100A500019F0E2CF1AF0D9CF1BF0DACF1CF0F3CFA8
:100A60001DF0F4CF1EF0F6CF1FF0F7CF20F0F8CF37
:100A700021F0F5CF22F0F0A20BD0F0923AA003D0F3
:100A8000F1883A9005D09AEC08F03A8EF1983A80C5
:100A90009EBA9DAA1CD09E9A0A0EAE18D8B40FD04A
:100AA000EA0EAE18D8B40BD03750010DBE0EF324A9
:100AB000D96E000EF420DA6EAECFDFFF372A450E76
:100AC000AE18D8A404D0000E376E010E326E9EAC64
:100AD0002DD09E9C4050136E146AC350135CC450BA
:100AE0001458D8A004D00001BA4BBB2B3A92405006
:100AF000136E146AC350135CC4501458D8B016D087
:100B00000001BA513C5C0001BB513D58D8A00DD04A
:100B100025500001BC5D26500001BD59D8B005D05C
:100B20003A820001BA4BBB2B01D03A92F2A436D0E4
:100B3000F2942B2A2C50D8A42C06030E2B18D8A4E0
:100B400025D0000E2B6E254A262AC2823E5025183B
:100B50001DE13F502618D8A419D0000E266E000EB5
:100B6000256E000E0001BB6F000EBA6F3CC013F083
:100B70003DC014F0131E141E134A142A3E501324B1
:100B80000001BC6F3F5014200001BD6FD59E0B0EBD
:100B90000CEC09F0D00E08EC09F0D58E9EA415D00F
:100BA0009E943850020DE70EF324D96E000EF42007
:100BB000DA6E01D80AD00500FA6EDE50FD6EDE5006
:100BC000FE6EF850FF6EFA50120022C0F5FF21C0F1
:100BD000F8FF20C0F7FF1FC0F6FF1EC0F4FF1DC0C6
:100BE000F3FF1CC0DAFF1BC0D9FF1AC0E2FF19C017
:100BF000E1FF18C0EAFF17C0E9FF16C0FBFF15C0F0
:100C0000FAFF45921100000E0001D86F0001D6AF27
:100C100008D00001D56DD61FD8B0D62B010E00012B
:100C2000D86F0001D4AF08D00001D36DD41FD8B065
:100C3000D42B010E0001D81B000E0001DA6F000E4C
:100C4000D96F0001D5510001D611D8B42CD0010EB6
:100C50000001D76F06D00001D890D537D6370001F4
:100C6000D72B0001D6AFF7D70001D890D937DA37A4
:100C70000001D5510001D35D0001D6510001D459C6
:100C8000D8A00AD00001D5510001D35F0001D65190
:100C90000001D45B0001D9810001D890D633D5334F
:100CA0000001D72FE1D70001D8510001D8B405D0F9
:100CB0000001D96DDA1FD8B0DA2BD9C0D3F0DAC071
:100CC000D4F012006C0ED36E55EC08F01AEC08F05C
:100CD000D59E0B0EECEC08F0D00EE7EC08F0D58EAC
:100CE000090EC26E0C0EC16EC08EF6EC08F0929624
:100CF0008986D0EC08F03A8E3CC0E5F03DC0E6F0C5
:100D00000001E51FE61FE54BE62B3E500001E525FF
:100D10000001BC6F3F500001E6210001BD6F2EECC9
:100D200008F02C50D8A410D025500001BC5D2650EE
:100D30000001BD59D8B008D03AB203D0D0EC08F0C9
:100D400003D03AB291EC08F03250D8B4EAD7BE0ED4
:100D50000001DF6F000E0001E06F02EC04F0E1D74C
:100D6000000E0C6E0AAE06D0096C0A1ED8B00A2A14
:100D7000010E0C6E08AE06D0076C081ED8B0082A0B
:100D8000010E0C1A000E0E6E000E0D6E09500A10A8
:100D9000D8B41CD0010E0B6E04D0D89009360A3698
:100DA0000B2A0AAEFAD7D8900D360E360950075CDA
:100DB0000A500858D8A005D00950075E0A50085AB2
:100DC0000D80D8900A3209320B2EEDD70C50D8B4D2
:100DD00004D00D6C0E1ED8B00E2A0DC007F00EC048
:100DE00008F012000001DD6FDDC0CDF00001CE6B18
:100DF000010E0001D06FD60ECF6FFFEC07F0CDC013
:100E0000D3F0CEC0D4F0000E0001D66F640ED56FC3
:100E100003EC06F0D3C023F0D4C024F0030E231457
:100E20000001B06F0001B16B23C0DBF024C0DCF027
:100E30000001D890DC33DB330001D890DC33DB33A6
:100E4000DBC0B4F0DCC0B5F0B4C0BBFF0001B0390A
:100E5000F00BBA10BA6E120000EE60F06D0EEE6A82
:100E6000E806FDE13B6A3A6A00EE23F0170EEE6AEF
:100E7000E806FDE1660EF66E110EF76E000EF86ED6
:100E800000EEE7F010EE0FF00900F5CFEEFFE550B1
:100E9000E150FAE1F60EF66E110EF76E000EF86EE6
:100EA00000EE3CF010EE09F00900F5CFEEFFE55042
:100EB000E150FAE145904592000EF86E000162EFB4
:100EC00006F0116E11C001F0026A010E046ED60E1A
:100ED000036E42EC08F001C007F002C008F0000EFB
:100EE0000A6E640E096EB0EC06F007C023F008C06D
:100EF00024F0030E23140001B06F0001B16B23C076
:100F00000FF024C010F0D89010320F32D890103269
:100F10000F320FC0B4F010C0B5F0B4C0BBFF000179
:100F2000B039F00BBA10BA6E1200B8C001F0B9C0F7
:100F300002F0011E021E014A022ABE500126BF50C5
:100F400002222F50020D600EF324D96E000EF42001
:100F5000DA6E01C0DEFF02C0DDFFBECFB8F0BFCF4A
:100F6000B9F02F2A280E2F18D8A41200CD069D9470
:100F700094948B84000E2F6E000E386E1200CD8E6E
:100F8000CD8CCD86CD92CD90CD50CF0B346E080E4A
:100F90004418D8A404D034503009CD6E1200040E89
:100FA0004418D8A404D034502009CD6E1200020E8B
:100FB0004418D8A404D034501009CD6E120034C0A7
:100FC000CDFF12009D84080EBD6E000ECF6E000E88
:100FD000CE6E500ECE240001B66F460ECF2000011B
:100FE000B76FA00EB16EC80ECD6E94940001B751CC
:100FF000BF6EB6C0BEFFCD2A020E386E12000001D1
:10100000CD510001CF03F3CFD1F0F4CFD2F00001E6
:10101000CD510001D003F3500001D2270001CE5181
:101020000001CF03F3500001D227D1C0CDF0D2C0D0
:10103000CEF01200040E0001CE6F000E0001CD6F45
:101040000001CD51400DF3500001CE25800FD56E2B
:10105000000ED76E150ED66EF2941200AC9EAC9CAC
:10106000AC8AAC98AC96AC94AB8EAB9CAB9AAB888C
:10107000AB96B896010EF66E080EF76E0800F5CF27
:10108000AFFF120001500302F3CF05F0F4CF06F0DA
:1010900001500402F350062602500302F3500626C4
:1010A00005C001F006C002F0120016EC09F0D6EC03
:1010B00008F0C9EC08F0F1EC08F0A3EC08F0BBEC88
:1010C00008F0ABEC08F0C2EC08F01200CD06000E00
:1010D000CF6E000ECE6E000EBF6E000EBE6ECD2A1D
:1010E000BECFB8F0BFCFB9F0040E386E12000001C9
:1010F000DE6F000ECA6E10EC09F00001DE51F2EC5A
:1011000006F09396060ECA6E1200126E000ECA6E9C
:1011100013EC09F0125061EC07F09396060ECA6EBC
:1011200012003BB01200320E77EC08F000EC09F030
:101130003B8012003BB01200320E85EC08F004EC4C
:1011400009F03B8012009D8C9D8A9D989D969D94F0
:101150009D929D9012009F8C9F8A9F989F969F843E
:101160009F929F9012003012C40FB811CC102A0F1A
:051170004F264E405720
:10117600A09EA09CA098A094A096A0921200A29EC9
:10118600A29CA298A294A296A2921200F18EF19C21
:10119600F19AF188F184F19012003BA01200E2EC82
:1011A60008F03B901200F28EF29CF28AF298F296C8
:1011B6001200040EBD6E9484030E386E1200000EEB
:1011C600BA6ECD968A9612000001CD6FCDC0D6FFBD
:1011D60012000001CD6FCDC0D7FF1200F08EF09C3B
:1011E600F088F096120094948B84BFEC07F01200FE
:0911F6009B05A0052845464C04A8
:101200000C0EBA6ECD8612000C0EBA6ECD86120090
:10121000016E01C0D6FF1200016E01C0D7FF12009F
:10122000C80ECB6E1200C80ECB6E1200D08E12000C
:021230001200AA
:020000040020DA
:08000000FFFFFFFFFFFFFFFF00
:020000040030CA
:0E000000000B1B1EFF0085FF0000000000002B
:00000001FF
