:040000000BEF00F012
:100008005582FACF36F0FBCF37F002ED04F01DEF42
:0200180005F0F1
:03080000000C00E9
:100804000600E9CF38F0EACF39F0E1CF3AF0E2CF91
:100814003BF0D9CF3CF0DACF3DF0F3CF3EF0F4CF4C
:100824003FF0F6CF40F0F7CF41F0F8CF42F0F5CFEC
:1008340043F0F0A20CD0F09254A205D047EC06F09D
:10084400F198549204D013EC06F0F18854829EBCC3
:100854009E9CF2A41ED0F294050E156002D0152AB7
:1008640011D0D59E20EE46F001D80AD00500FA6ECC
:10087400DE50FD6EDE50FE6EF850FF6EFA50120030
:10088400000E156EF00E3CEC06F0BD0E38EC06F0D2
:10089400D58E9EA415D09E942250020D440EF324AE
:1008A400D96E000EF420DA6E01D80AD00500FA6E73
:1008B400DE50FD6EDE50FE6EF850FF6EFA501200F0
:1008C40043C0F5FF42C0F8FF41C0F7FF40C0F6FF48
:1008D4003FC0F4FF3EC0F3FF3DC0DAFF3CC0D9FF88
:1008E4003BC0E2FF3AC0E1FF39C0EAFF38C0E9FF8C
:1008F40037C0FBFF36C0FAFF55921100000E2F6E71
:100904002DAE06D02C6C2D1ED8B02D2A010E2F6EC4
:100914002BAE06D02A6C2B1ED8B02B2A010E2F1A10
:10092400000E316E000E306E2C502D10D8B41CD039
:10093400010E2E6E04D0D8902C362D362E2A2DAED4
:10094400FAD7D890303631362C502A5C2D502B589B
:10095400D8A005D02C502A5E2D502B5A3080D89028
:100964002D322C322E2EEDD72F50D8B404D0306C2B
:10097400311ED8B0312A30C02AF031C02BF0120019
:10098400346E34C024F0256A010E276ED60E266E0E
:1009940092EC05F024C02AF025C02BF0000E2D6E39
:1009A400640E2C6E80EC04F02AC00BF02BC00CF00B
:1009B400030E0B14076E086A0BC032F00CC033F040
:1009C400D89033323232D8903332323232C009F0D6
:1009D40033C00AF009C0BBFF0738F00BBA10BA6E77
:1009E40012000FC024F010C025F0241E251E244A36
:1009F400252ABE502426BF5025221650020D600E13
:100A0400F324D96E000EF420DA6E24C0DEFF25C074
:100A1400DDFFBECF0FF0BFCF10F0162A280E161838
:100A2400D8A41200CD069D9493968A86000E166E65
:100A3400000E226E120000EE60F0500EEE6AE80620
:100A4400FDE1546A00EE01F0230EEE6AE806FDE1D2
:100A5400C00EF66E0B0EF76E000EF86E00EE44F04C
:100A640010EE10F00900F5CFEEFFE550E150FAE189
:100A740055905592000EF86E0001A5EF05F0CD8E4D
:100A8400CD8CCD86CD92CD90CD50CF0B1F6E080E60
:100A94005218D8A404D01F503009CD6E1200040E91
:100AA4005218D8A404D01F502009CD6E1200020E93
:100AB4005218D8A404D01F501009CD6E12001FC0C4
:100AC400CDFF12009D84080EBD6E000ECF6E000E89
:100AD400CE6EFE0ECE240D6EFF0ECF200E6EA00E37
:100AE400B16EC80ECD6E93960E50BF6E0DC0BEFF94
:100AF400CD2A020E226E1200070E0001B16F000E05
:100B04000001B06F0001B051400DF3500001B12558
:100B1400800FD56E000ED76E150ED66EF2941200AD
:100B240024502602F3CF28F0F4CF29F024502702D2
:100B3400F350292625502602F350292628C024F0F4
:100B440029C025F012006C0ED36EB6EC05F07EECD5
:100B540005F0D59EF00E24EC06F0BD0E1FEC06F059
:100B6400D58E2EEC06F0FFD74AEC06F00DEC06F01D
:100B740006EC06F029EC06F0E8EC05F0F8EC05F0DC
:100B8400F0EC05F0FFEC05F01200CD06000ECF6E80
:100B9400000ECE6ECD2ACECF0FF0CFCF10F0040EC4
:100BA400226E1200356E000ECA6E44EC06F035500B
:100BB400C2EC04F09396060ECA6E1200980CC80A92
:100BC400320C8E0BE60923254024042B9D8C9D9A20
:100BD4009D989D969D949D929D9012009F8C9F9AA6
:100BE4009F989F969F849F929F901200A09EA09C86
:100BF400A098A094A096A0921200A29EA29CA29853
:100C0400A294A296A2921200F19EF19CF19AF1880C
:100C1400F184F1901200F28EF29CF28AF298F2962C
:100C24001200320ED4EC05F040EC06F01200040E73
:100C3400BD6E9386030E226E12000001B06FB0C029
:100C4400D6FF12000001B06FB0C0D7FF1200F08EC3
:100C5400F09CF088F096120093968A8641EC05F099
:100C64001200000EBA6ECD968A961200246E24C02D
:100C7400D6FF1200246E24C0D7FF12000C0EBA6EE9
:100C8400CD8612007C0ECB6E120033EC06F01200FF
:060C9400D08E12001200D8
:020000040020DA
:08000000FFFFFFFFFFFFFFFF00
:020000040030CA
:0E000000000B1B1EFF0085FF0000000000002B
:00000001FF
